{
  "_format": "hh-sol-artifact-1",
  "contractName": "SharedWallet",
  "sourceName": "contracts/SharedWallet.sol",
  "abi": [
    {
      "inputs": [],
      "stateMutability": "nonpayable",
      "type": "constructor"
    },
    {
      "anonymous": false,
      "inputs": [
        {
          "indexed": true,
          "internalType": "address",
          "name": "previousOwner",
          "type": "address"
        },
        {
          "indexed": true,
          "internalType": "address",
          "name": "newOwner",
          "type": "address"
        }
      ],
      "name": "OwnershipTransferred",
      "type": "event"
    },
    {
      "inputs": [
        {
          "internalType": "address",
          "name": "_user",
          "type": "address"
        },
        {
          "internalType": "uint256",
          "name": "_amount",
          "type": "uint256"
        }
      ],
      "name": "addFund",
      "outputs": [],
      "stateMutability": "nonpayable",
      "type": "function"
    },
    {
      "inputs": [
        {
          "internalType": "address",
          "name": "",
          "type": "address"
        }
      ],
      "name": "funds",
      "outputs": [
        {
          "internalType": "uint256",
          "name": "",
          "type": "uint256"
        }
      ],
      "stateMutability": "view",
      "type": "function"
    },
    {
      "inputs": [],
      "name": "getBalance",
      "outputs": [
        {
          "internalType": "uint256",
          "name": "",
          "type": "uint256"
        }
      ],
      "stateMutability": "view",
      "type": "function"
    },
    {
      "inputs": [],
      "name": "owner",
      "outputs": [
        {
          "internalType": "address",
          "name": "",
          "type": "address"
        }
      ],
      "stateMutability": "view",
      "type": "function"
    },
    {
      "inputs": [],
      "name": "renounceOwnership",
      "outputs": [],
      "stateMutability": "nonpayable",
      "type": "function"
    },
    {
      "inputs": [
        {
          "internalType": "string",
          "name": "_name",
          "type": "string"
        }
      ],
      "name": "setwalletName",
      "outputs": [],
      "stateMutability": "nonpayable",
      "type": "function"
    },
    {
      "inputs": [
        {
          "internalType": "address",
          "name": "newOwner",
          "type": "address"
        }
      ],
      "name": "transferOwnership",
      "outputs": [],
      "stateMutability": "nonpayable",
      "type": "function"
    },
    {
      "inputs": [],
      "name": "walletName",
      "outputs": [
        {
          "internalType": "string",
          "name": "",
          "type": "string"
        }
      ],
      "stateMutability": "view",
      "type": "function"
    },
    {
      "inputs": [],
      "name": "walletOwner",
      "outputs": [
        {
          "internalType": "address",
          "name": "",
          "type": "address"
        }
      ],
      "stateMutability": "view",
      "type": "function"
    },
    {
      "inputs": [
        {
          "internalType": "address payable",
          "name": "_to",
          "type": "address"
        },
        {
          "internalType": "uint256",
          "name": "_amount",
          "type": "uint256"
        }
      ],
      "name": "withdraw",
      "outputs": [],
      "stateMutability": "payable",
      "type": "function"
    }
  ],
  "bytecode": "0x608060405234801561001057600080fd5b5061002d61002261008860201b60201c565b61009060201b60201c565b600060018190555061004361015460201b60201c565b600360006101000a81548173ffffffffffffffffffffffffffffffffffffffff021916908373ffffffffffffffffffffffffffffffffffffffff16021790555061017d565b600033905090565b60008060009054906101000a900473ffffffffffffffffffffffffffffffffffffffff169050816000806101000a81548173ffffffffffffffffffffffffffffffffffffffff021916908373ffffffffffffffffffffffffffffffffffffffff1602179055508173ffffffffffffffffffffffffffffffffffffffff168173ffffffffffffffffffffffffffffffffffffffff167f8be0079c531659141344cd1fd0a4f28419497f9722a3daafe3b4186f6b6457e060405160405180910390a35050565b60008060009054906101000a900473ffffffffffffffffffffffffffffffffffffffff16905090565b6111958061018c6000396000f3fe6080604052600436106100915760003560e01c8063cf8d8ca011610059578063cf8d8ca014610157578063d512c06114610182578063e2ae93fb146101ab578063f2fde38b146101e8578063f3fef3a31461021157610091565b806304a69af91461009657806312065fe0146100bf5780631ae879e8146100ea578063715018a6146101155780638da5cb5b1461012c575b600080fd5b3480156100a257600080fd5b506100bd60048036038101906100b89190610ae9565b61022d565b005b3480156100cb57600080fd5b506100d46102bc565b6040516100e19190610d0d565b60405180910390f35b3480156100f657600080fd5b506100ff610303565b60405161010c9190610c30565b60405180910390f35b34801561012157600080fd5b5061012a610329565b005b34801561013857600080fd5b506101416103b1565b60405161014e9190610c30565b60405180910390f35b34801561016357600080fd5b5061016c6103da565b6040516101799190610c4b565b60405180910390f35b34801561018e57600080fd5b506101a960048036038101906101a49190610aad565b610468565b005b3480156101b757600080fd5b506101d260048036038101906101cd9190610a48565b6105a7565b6040516101df9190610d0d565b60405180910390f35b3480156101f457600080fd5b5061020f600480360381019061020a9190610a48565b6105bf565b005b61022b60048036038101906102269190610a71565b6106b7565b005b6102356103b1565b73ffffffffffffffffffffffffffffffffffffffff163373ffffffffffffffffffffffffffffffffffffffff16146102a2576040517f08c379a000000000000000000000000000000000000000000000000000000000815260040161029990610cad565b60405180910390fd5b80600490805190602001906102b89291906108fe565b5050565b6000600260003373ffffffffffffffffffffffffffffffffffffffff1673ffffffffffffffffffffffffffffffffffffffff16815260200190815260200160002054905090565b600360009054906101000a900473ffffffffffffffffffffffffffffffffffffffff1681565b610331610832565b73ffffffffffffffffffffffffffffffffffffffff1661034f6103b1565b73ffffffffffffffffffffffffffffffffffffffff16146103a5576040517f08c379a000000000000000000000000000000000000000000000000000000000815260040161039c90610ced565b60405180910390fd5b6103af600061083a565b565b60008060009054906101000a900473ffffffffffffffffffffffffffffffffffffffff16905090565b600480546103e790610eb4565b80601f016020809104026020016040519081016040528092919081815260200182805461041390610eb4565b80156104605780601f1061043557610100808354040283529160200191610460565b820191906000526020600020905b81548152906001019060200180831161044357829003601f168201915b505050505081565b610470610832565b73ffffffffffffffffffffffffffffffffffffffff1661048e6103b1565b73ffffffffffffffffffffffffffffffffffffffff16146104e4576040517f08c379a00000000000000000000000000000000000000000000000000000000081526004016104db90610ced565b60405180910390fd5b47816001546104f39190610d9a565b1115610534576040517f08c379a000000000000000000000000000000000000000000000000000000000815260040161052b90610ccd565b60405180910390fd5b80600260008473ffffffffffffffffffffffffffffffffffffffff1673ffffffffffffffffffffffffffffffffffffffff16815260200190815260200160002060008282546105839190610d9a565b92505081905550806001600082825461059c9190610d9a565b925050819055505050565b60026020528060005260406000206000915090505481565b6105c7610832565b73ffffffffffffffffffffffffffffffffffffffff166105e56103b1565b73ffffffffffffffffffffffffffffffffffffffff161461063b576040517f08c379a000000000000000000000000000000000000000000000000000000000815260040161063290610ced565b60405180910390fd5b600073ffffffffffffffffffffffffffffffffffffffff168173ffffffffffffffffffffffffffffffffffffffff1614156106ab576040517f08c379a00000000000000000000000000000000000000000000000000000000081526004016106a290610c6d565b60405180910390fd5b6106b48161083a565b50565b806106c06103b1565b73ffffffffffffffffffffffffffffffffffffffff163373ffffffffffffffffffffffffffffffffffffffff161480610738575080600260003373ffffffffffffffffffffffffffffffffffffffff1673ffffffffffffffffffffffffffffffffffffffff1681526020019081526020016000205410155b610777576040517f08c379a000000000000000000000000000000000000000000000000000000000815260040161076e90610c8d565b60405180910390fd5b8273ffffffffffffffffffffffffffffffffffffffff166108fc839081150290604051600060405180830381858888f193505050501580156107bd573d6000803e3d6000fd5b5081600160008282546107d09190610df0565b9250508190555081600260003373ffffffffffffffffffffffffffffffffffffffff1673ffffffffffffffffffffffffffffffffffffffff16815260200190815260200160002060008282546108269190610df0565b92505081905550505050565b600033905090565b60008060009054906101000a900473ffffffffffffffffffffffffffffffffffffffff169050816000806101000a81548173ffffffffffffffffffffffffffffffffffffffff021916908373ffffffffffffffffffffffffffffffffffffffff1602179055508173ffffffffffffffffffffffffffffffffffffffff168173ffffffffffffffffffffffffffffffffffffffff167f8be0079c531659141344cd1fd0a4f28419497f9722a3daafe3b4186f6b6457e060405160405180910390a35050565b82805461090a90610eb4565b90600052602060002090601f01602090048101928261092c5760008555610973565b82601f1061094557805160ff1916838001178555610973565b82800160010185558215610973579182015b82811115610972578251825591602001919060010190610957565b5b5090506109809190610984565b5090565b5b8082111561099d576000816000905550600101610985565b5090565b60006109b46109af84610d4d565b610d28565b9050828152602081018484840111156109cc57600080fd5b6109d7848285610e72565b509392505050565b6000813590506109ee8161111a565b92915050565b600081359050610a0381611131565b92915050565b600082601f830112610a1a57600080fd5b8135610a2a8482602086016109a1565b91505092915050565b600081359050610a4281611148565b92915050565b600060208284031215610a5a57600080fd5b6000610a68848285016109df565b91505092915050565b60008060408385031215610a8457600080fd5b6000610a92858286016109f4565b9250506020610aa385828601610a33565b9150509250929050565b60008060408385031215610ac057600080fd5b6000610ace858286016109df565b9250506020610adf85828601610a33565b9150509250929050565b600060208284031215610afb57600080fd5b600082013567ffffffffffffffff811115610b1557600080fd5b610b2184828501610a09565b91505092915050565b610b3381610e24565b82525050565b6000610b4482610d7e565b610b4e8185610d89565b9350610b5e818560208601610e81565b610b6781610fa4565b840191505092915050565b6000610b7f602683610d89565b9150610b8a82610fb5565b604082019050919050565b6000610ba2601383610d89565b9150610bad82611004565b602082019050919050565b6000610bc5603383610d89565b9150610bd08261102d565b604082019050919050565b6000610be8604a83610d89565b9150610bf38261107c565b606082019050919050565b6000610c0b602083610d89565b9150610c16826110f1565b602082019050919050565b610c2a81610e68565b82525050565b6000602082019050610c456000830184610b2a565b92915050565b60006020820190508181036000830152610c658184610b39565b905092915050565b60006020820190508181036000830152610c8681610b72565b9050919050565b60006020820190508181036000830152610ca681610b95565b9050919050565b60006020820190508181036000830152610cc681610bb8565b9050919050565b60006020820190508181036000830152610ce681610bdb565b9050919050565b60006020820190508181036000830152610d0681610bfe565b9050919050565b6000602082019050610d226000830184610c21565b92915050565b6000610d32610d43565b9050610d3e8282610ee6565b919050565b6000604051905090565b600067ffffffffffffffff821115610d6857610d67610f75565b5b610d7182610fa4565b9050602081019050919050565b600081519050919050565b600082825260208201905092915050565b6000610da582610e68565b9150610db083610e68565b9250827fffffffffffffffffffffffffffffffffffffffffffffffffffffffffffffffff03821115610de557610de4610f17565b5b828201905092915050565b6000610dfb82610e68565b9150610e0683610e68565b925082821015610e1957610e18610f17565b5b828203905092915050565b6000610e2f82610e48565b9050919050565b6000610e4182610e48565b9050919050565b600073ffffffffffffffffffffffffffffffffffffffff82169050919050565b6000819050919050565b82818337600083830152505050565b60005b83811015610e9f578082015181840152602081019050610e84565b83811115610eae576000848401525b50505050565b60006002820490506001821680610ecc57607f821691505b60208210811415610ee057610edf610f46565b5b50919050565b610eef82610fa4565b810181811067ffffffffffffffff82111715610f0e57610f0d610f75565b5b80604052505050565b7f4e487b7100000000000000000000000000000000000000000000000000000000600052601160045260246000fd5b7f4e487b7100000000000000000000000000000000000000000000000000000000600052602260045260246000fd5b7f4e487b7100000000000000000000000000000000000000000000000000000000600052604160045260246000fd5b6000601f19601f8301169050919050565b7f4f776e61626c653a206e6577206f776e657220697320746865207a65726f206160008201527f6464726573730000000000000000000000000000000000000000000000000000602082015250565b7f596f7520617265206e6f7420616c6c6f77656400000000000000000000000000600082015250565b7f596f75206d75737420626520746865206f776e657220746f207365742074686560008201527f206e616d65206f66207468652077616c6c657400000000000000000000000000602082015250565b7f596f752063616e2774206164642066756e64732074686174206576656e206d6f60008201527f7265207468616e207468617420697320617661696c61626c6520696e2074686560208201527f20636f6e74726163742e00000000000000000000000000000000000000000000604082015250565b7f4f776e61626c653a2063616c6c6572206973206e6f7420746865206f776e6572600082015250565b61112381610e24565b811461112e57600080fd5b50565b61113a81610e36565b811461114557600080fd5b50565b61115181610e68565b811461115c57600080fd5b5056fea264697066735822122047102a3157b55e5f1201526ba69b2da78c1ebd55f68dc3a085d3b771be6aac6c64736f6c63430008040033",
  "linkReferences": {},
  "deployedLinkReferences": {}
}